:02000002D0002C
:1040000000400D007C5F0D00000006000C00050163
:084010000401FD08000000009E
:04401800F85C0D0043
:10401C0009480A49884208B505D0094A824202D0AB
:10402C00121A01F09DFD0748074A0021121A01F0EF
:10403C00A5FD014808BD00BF2CE50320E45E0D0082
:10404C009CE503209CE50320EDE7032070B5074EAB
:10405C00074C00F055FDA41BA4080025A54200D177
:10406C0070BD56F8043B98470135F7E7B85E0D0074
:10407C00DC5E0D0000F088B808B500F09FF8BDE8D4
:10408C00084000F0F5BC00F0F5BA00F0F3BA00F00F
:10409C00F9BA0078B0FA80F0400970470123037038
:1040AC0070474260112241700270704710B504468F
:1040BC00406801F0F2F910B9606801F0B1F9012023
:1040CC0010BD000070B505464178406801F0DAF982
:1040DC0069786868022201F0D2F9686803685B6944
:1040EC0098470646686803685B69984704466868A1
:1040FC0001F0D0F944EA062084B207EE904AB8EEFB
:10410C00670ADFED027A80EE270A70BD9A99993F13
:10411C000378232B05D0132B0CBF1820B42000F0F0
:10412C0061BC1820FBE738B504460D464178406861
:10413C0001F0A8F96068036829469B689847606895
:10414C0001F0A8F925702046BDE83840FFF7E0BF24
:10415C0010B50378A3F12002012A044601D9232BC0
:10416C0010D16178606801F08DF96068217803687E
:10417C009B689847606801F08DF92046BDE81040B7
:10418C00FFF7C6BF10BD000010B50A4B0A4C1888CB
:10419C00012101F0B3FA2046FFF788FF21212046C8
:1041AC00FFF7C1FF01F04AF8BDE810404FF416517B
:1041BC0001F038B82CE50320A0E50320D0B52DED97
:1041CC00028B2C4888B0FFF7C3FF2A48FFF77AFF11
:1041DC0010EE100AB0EE408A01F064FC02460B4669
:1041EC0006460F4604A8244900F036FB234B049ADC
:1041FC001B788DF8003022493C2302A800F0D8FD32
:10420C00039C7CB16368013B63605BB92368204607
:10421C009B689847A368013BA3601BB923682046A1
:10422C00DB68984704A800F0B7FA01F007F83246AB
:10423C003B460446134904A800F00EFB04992046A3
:10424C0000F095FB04A800F0A7FADFED0F7A0F4BF6
:10425C00B4EEE78AF1EE10FA1888CCBF00210121E8
:10426C0001F05DFA42F2107000F0BCFB08B0BDEC3E
:10427C00028BD0BDA0E50320245D0D009CE503203E
:10428C000C5D0D00175D0D000000C8432CE50320EC
:10429C00084B10B501241C7001F074FA232102465E
:1042AC000548FFF7FEFE20460021BDE8104000F057
:1042BC003DB900BF9CE50320A0E5032008B5024BE7
:1042CC001B689B68019308BD6802030008B5024B8C
:1042DC001B68DB68019308BD6802030008B5024B3C
:1042EC001B689B68019308BD2C02030008B5024BA8
:1042FC001B68DB68019308BD2C02030008B5024B58
:10430C001B681B69019308BD2C02030008B5024B06
:10431C001B685B68019308BD1802030008B5024BCB
:10432C001B685B69019308BD1802030008B5024BBA
:10433C001B685B6C019308BD4802030008B5024B77
:10434C001B685B69019308BD6402030008B5024B4E
:10435C001B681B68019308BD3C02030008B5024BA7
:10436C001B68DB68019308BD3C02030008B5024BD7
:10437C001B681B69019308BD3C02030008B5024B86
:10438C001B685B69019308BD3C02030008B5024B36
:10439C001B689B69019308BD3C02030008B5024BE6
:1043AC001B68DB69019308BD3C02030008B5024B96
:1043BC001B681B6A019308BD3C02030008B5024B45
:1043CC001B689B6A019308BD3C02030008B5024BB5
:1043DC001B68DB68019308BD2802030008B5024B7B
:1043EC001B689B69019308BD2802030008B5024BAA
:1043FC001B68DB69019308BD2802030008B5024B5A
:10440C001B681B6A019308BD2802030008B5024B08
:10441C001B685B6A019308BD2802030008B5024BB8
:10442C001B689B6A019308BD2802030008B5024B68
:10443C001B68DB6A019308BD2802030008B5024B18
:10444C001B681B6B019308BD2802030008B5024BC7
:10445C001B685B6B019308BD2802030008B5024B77
:10446C001B681B6C019308BD2802030008B5024BA6
:10447C001B681B6D019308BD2802030008B5024B95
:10448C001B68DB69019308BD3002030008B5024BC1
:10449C001B681B6A019308BD3002030008B5024B70
:1044AC001B681B68019308BD4C02030008B5024B46
:1044BC001B685B68019308BD4C02030008B5024BF6
:1044CC001B681B69019308BD4C02030008B5024B25
:1044DC001B685B69019308BD4C02030008B5024BD5
:1044EC001B689B69019308BD4C02030008B5024B85
:1044FC001B68DB69019308BD4C02030008B5024B35
:10450C001B681B6A019308BD4C02030008B5024BE3
:10451C001B685B68019308BD2002030008B5024BC1
:10452C001B685B69019308BD2002030008B5024BB0
:10453C001B68DB6A019308BD2002030008B5024B1F
:10454C001B68DB6C019308BD2002030008B5024B0D
:10455C001B685B6D019308BD2002030008B5034B7B
:10456C001B68D3F88830019308BD000020020300BB
:10457C0008B5034B1B68D3F89430019308BD0000B9
:10458C002002030008B5024B1B685B68019308BD51
:10459C004002030008B5024B1B689B68019308BDE1
:1045AC004002030008B5024B1B68DB68019308BD91
:1045BC004002030008B5024B1B681B69019308BD40
:1045CC004002030008B5024B1B685B69019308BDF0
:1045DC004002030008B5024B1B689B69019308BDA0
:1045EC004002030008B5024B1B68DB69019308BD50
:1045FC004002030008B5024B1B681B6A019308BDFF
:10460C004002030008B5024B1B681B6B019308BDED
:10461C004002030008B5024B1B685B6B019308BD9D
:10462C004002030008B5024B1B681B6C019308BDCC
:10463C004002030008B5024B1B685B6C019308BD7C
:10464C004002030008B5024B1B685B69019308BD6F
:10465C004402030008B5024B1B681B6A019308BD9A
:10466C004402030008B5024B1B68DB6B019308BDC9
:10467C004402030008B5024B1B681B68019308BD7C
:10468C001C02030008B5024B1B685B68019308BD54
:10469C001C02030008B5024B1B689B68019308BD04
:1046AC001C02030008B5024B1B685B6A019308BD32
:1046BC001C02030008B5024B1B68DB6A019308BDA2
:1046CC001C02030008B5024B1B681B6B019308BD51
:1046DC001C02030008B5024B1B685B6C019308BD00
:1046EC001C020300002240681146FFF783BF002222
:1046FC0040681146FFF78EBF40680022FFF782BF6B
:10470C004068002281F00101FFF76CBF0023406874
:10471C001A461946FFF75EBF002340681A46194631
:10472C00FFF750BF002240681146FFF743BF00223D
:10473C0040681146FFF72EBF406800220221FFF7A8
:10474C0031BF002340681A46FFF71CBF024B0322FF
:10475C005A60024A1A607047A8E50320305D0D00CC
:10476C0010B5044608462170FFF788FE00236360ED
:10477C00204610BD054B02221A60054B054A9A6073
:10478C000020186098809871FFF7C0BEBCE503202C
:10479C00B0E503200000FFFF10B504460068FFF7EA
:1047AC0071FF204610BD10B50446006808B1FFF734
:1047BC0069FF0023C4E90133236010BD38B50446FA
:1047CC000D4600680131FFF765FF10B1C4E9000523
:1047DC00012038BD10B50368044623B143688B42F1
:1047EC0001D3012010BD2046FFF7E8FF0028F9D0C7
:1047FC00A368002BF5D122681370F2E737B50D468C
:10480C00114601920446FFF7E5FF019A28B92046AC
:10481C00FFF7C9FF204603B030BDA26029462068CF
:10482C0001F09EF92268A3680021D154F2E700231D
:10483C0013B5C0E9003304468360037341B10846E5
:10484C00019101F0E4F9019902462046FFF7D6FFE9
:10485C00204602B010BD00000EB470B587B00BAD91
:10486C00044655F8042B01922B46052104A8039508
:10487C00FFF718FF0B4906462046FFF7D8FF3146D5
:10488C002046FFF7A7FF206830B1019A03952B460D
:10489C00711CFFF707FFA060204607B0BDE8704011
:1048AC0003B07047835D0D0010B5036804469B6828
:1048BC009847A368013BA3602BB923682046DB68AB
:1048CC00BDE81040184710BD0B68036013B15A685F
:1048DC0001325A60704710B50446006828B143682D
:1048EC00013B43600BB9FFF7DFFF204610BD000012
:1048FC00024800230360FFF719BD00BFC0E5032089
:10490C00F8B506460D468F180024BD420CD033680E
:10491C0015F8011B9B6830469847031E01DB1C44AD
:10492C00F3E7002C08BF1C462046F8BD13B504461F
:10493C00084659B1019101F06AF923680199DB68C5
:10494C000246204602B0BDE81040184702B010BD28
:10495C0003689B68184738B50D210546FFF7F8FF2B
:10496C000A2104462846FFF7F3FF204438BD38B52A
:10497C000546FFF7DBFF04462846FFF7ECFF204413
:10498C0038BD30B58BB000238DF82430012A98BF88
:10499C000A2209AC0D46B1FBF2F101FB125303F0F4
:1049AC00FF03092B94BF30333733DBB2AA4204F830
:1049BC00013DEFD92146FFF7B9FF0BB030BD000028
:1049CC00014B024A1A607047C4E50320645D0D0078
:1049DC00024B1A68024B1A60704700BF30E5032087
:1049EC00C8E503200021FFF799BD10B58368044684
:1049FC0013B1032201469847204610BD13B50B4650
:104A0C000246D0E900016C4684E8030093E80300F9
:104A1C0082E8030094E8030083E8030002B010BDB1
:104A2C00014B00229A607047CCE50320014B1860C3
:104A3C00704700BF34E5032008B50B4B43B100F0C1
:104A4C00FDFB03681B699847002801DDAFF300806C
:104A5C00064B43B100F06CFC03681B6998470028B7
:104A6C0001DDAFF3008008BD000000000000000075
:104A7C0008B5FFF7E1FFFFF751FC014B186008BDCB
:104A8C0038E703200548064A064908B5121A01F012
:104A9C0067F8054B054A1A6008BD00BF00F40320F7
:104AAC0004F40320E05E0D0000F403201E1C279A82
:104ABC0007B5002300931A466FF07701FFF758FDF6
:104ACC0003B05DF804FB000007B543880A2B08D03F
:104ADC00502B0BD1094B1B684BB103B05DF804EBA9
:104AEC001847FFF7E5FF03B05DF804FB00230093C4
:104AFC001A466FF07701FFF73BFDF4E7E0E5032082
:104B0C0010B512480021FFF7E5FD114B1A68114B47
:104B1C009A42114B0CBF012200221A7001D0FFF7F0
:104B2C00B1FFFFF7F3FB044601F030F80B4B13B168
:104B3C002046AFF3008000210848FFF793FDBDE845
:104B4C00104007480021FFF709BD00BF394A0D008E
:104B5C0000F403201E1C279ADCE503200000000053
:104B6C00D54A0D0070470020704710B5102104463F
:104B7C0000F02CFE204610BD08B5FFF7F6FF08BD6F
:104B8C0030B500224FF69C74026084808D888C8036
:104B9C000C68858004600A6030BD10B5044600685E
:104BAC00FFF770FD204610BD38B5C468F4B123780A
:104BBC00022B03D104F10C00FFF7EFFF656835B150
:104BCC002846FFF712FF1021284600F0FFFDA568CC
:104BDC0035B12846FFF709FF1021284600F0F6FDF5
:104BEC0020461421BDE8384000F0F0BD38BD73B547
:104BFC000E46044656F8043B00930D4601A8314678
:104C0C00FFF762FE019A009B6260236001A80023FB
:104C1C0001930093FFF75FFE3046FFF75CFE2846DA
:104C2C00082100F0D3FD204602B070BD826810B59B
:104C3C000AB900F0CFFDBDE81040C368184708B5AD
:104C4C00006800F11001FFF7F1FF08BD826810B594
:104C5C000AB900F0BFFDBDE81040C368184708B59D
:104C6C00006800F11001FFF7F1FF08BD38B5002313
:104C7C000446036010200D46FFF705FA28B1012306
:104C8C00C0E90133024B0360C5602060204638BD8B
:104C9C008C5D0D0038B5002383608B6804460D468F
:104CAC002BB102229847EB68E360AB68A360204607
:104CBC0038BD0000F0B589B004686846FFF760FFA6
:104CCC004FF00203D4E84F2F002A03D1C4E8413F30
:104CDC000029F7D125D104F10C0569462846FFF7C8
:104CEC004FFFBFF35B8F01236370002004F10803B7
:104CFC00BFF35B8F53E8006F43E80002002AF9D141
:104D0C00BFF35B8F6EB1FFF719FC78B129463046C3
:104D1C00FFF78CFF3046FFF768FE1021304600F09D
:104D2C0055FD6846FFF739FF09B0F0BD314602A8C2
:104D3C00FFF7B0FFE068B4F9105008B100F04AFF7B
:104D4C0006901020ADF81C50FFF79DF90546E8B110
:104D5C00002787601820FFF796F9044688B10146B2
:104D6C00876002A8FFF74AFE049BA268A360059B1C
:104D7C00049206A9E268E36004F110000592FFF7C3
:104D8C00FFFE084BEB60084B2C60AB6006A8FFF7EE
:104D9C0004FF02A8FFF729FE002229460348FFF76B
:104DAC00D5FBB7E74B4C0D00E14E0D0089530D00C0
:104DBC002DE9F0478AB005469DF848900C461746F9
:104DCC009846FFF73FFC07AE824638BB4FF62E7372
:104DDC00059005A93046ADF81830FFF7D1FE142028
:104DEC00FFF751F9044648B1022303700123C0E9CF
:104DFC0001AA437031460C30FFF7C2FE284621460B
:104E0C0040F8044BFFF732FF3046FFF7C6FE05A80B
:104E1C00FFF7C3FE28460AB0BDE8F0870C234FF01D
:104E2C00000A1420CDE908AA0793FFF72CF90146D4
:104E3C0028B1C0E901AA80F800A080F801A004A85C
:104E4C000391FFF713FF224B08930820FFF71BF980
:104E5C00824628B1039B40F8043B04A9FFF734FDBC
:104E6C0000965FFA89F3424639462046CDF824A0D5
:104E7C00FFF7F0FBB8B9039B5B7803F0FF0293B923
:104E8C004FF69C7305A903A80592ADF81830FFF7EF
:104E9C0011FF05A8FFF781FE05A80999FFF7A7FEEA
:104EAC0006A8FFF718FD039B059304A906A8FFF7B6
:104EBC000BFD059B069A2B606A60002306A80693DF
:104ECC000593FFF708FD04A8FFF705FDA2E700BF57
:104EDC00A54F0D00022AF8B5054607D0032A18D0B5
:104EEC00012A01D10B6803600020F8BD18200E6860
:104EFC00FFF7C9F8044650B13146FFF7CBFE3069D5
:104F0C00B6F9147008B100F065FE2061A7822C6020
:104F1C00EAE70468002CE7D004F11000FFF73DFE2F
:104F2C002046FFF762FD1821204600F04FFCDBE71E
:104F3C0038B5002383608B6804460D462BB10222E2
:104F4C009847EB68E360AB68A360204638BD022A43
:104F5C0070B5044607D0032A12D0012A01D10B6880
:104F6C000360002070BD14200E68FFF78CF8054616
:104F7C0020B13146FFF7DCFF337C2B742560F0E762
:104F8C000468002CEDD02046FFF72FFD142120469D
:104F9C0000F01CFCE5E70000F0B589B004460D46B6
:104FAC0001A81146FFF723FEA4B124B21DB1284677
:104FBC0000F010FE054601A803A90395ADF81040BA
:104FCC00FFF778FE03A8FFF7E8FD02A8FFF783FCC4
:104FDC0009B0F0BD019D0123D5E84F2F002A03D164
:104FEC00C5E8413F0029F7D1EFD12B73BFF35B8F9D
:104FFC006B702B1DBFF35B8F53E8006F43E80042CF
:10500C00002AF9D1BFF35B8F002EDED02046FFF7CC
:10501C0095FA074660B105F10C013046FFF716FE14
:10502C003046FFF7E2FC1021304600F0CFFBCCE716
:10503C00314603A8FFF77CFF2B7B8DF81C3010202A
:10504C00FFF721F80546D0B187601420FFF71BF855
:10505C00044678B18760014603A8FFF7CFFC059B97
:10506C00A268A360069B0592E268E3609DF81C3081
:10507C0006922374064BEB60064B2C60AB6003A8C6
:10508C00FFF7B3FC002229460348FFF75FFAC7E796
:10509C006B4C0D005B4F0D0089530D00704710B524
:1050AC001821044600F092FB204610BDF0B5037D9C
:1050BC00062B8DB00E4600F104074FF0000412D001
:1050CC0000F1080515F8011D0A223046FFF759FCBE
:1050DC00AF42044419D0002CF4D02E213046FFF7F7
:1050EC0037FC0444EEE72F236A4639460A208DF834
:1050FC000040FFF723F9684600F089FD336802464B
:10510C00DB68694630469847044620460DB0F0BD32
:10511C0010B5054B0446112240F8043B002100F069
:10512C002DFD204610BD00BFA85D0D000346074AAB
:10513C0010B543F8042B01F1100251F8044B43F85D
:10514C00044B9142F9D10A781A7010BDA85D0D007C
:10515C0010B59DF8084044EA032343EA024242EAB0
:10516C00016104234160037510BD13B5CB78009326
:10517C008B784A780978FFF7EBFF02B010BD4174C9
:10518C0070477047704708B50021007CFFF7A6F9FF
:10519C0040EAE07008BD08B50121007CFFF79EF9DC
:1051AC0040EAE07008BD08B5007CFFF78FF920EAF3
:1051BC00E07008BD08B5007CFFF780F920EAE070CC
:1051CC0008BD13B50446007C0191FFF77FF9002858
:1051DC00019901DC607C20B1207CFFF787F920EA83
:1051EC00E07002B010BD007CFFF788B910B5142137
:1051FC00044600F0EBFA204610BD000010B54FF449
:10520C007A73044608460021C4E90113044B236059
:10521C000123207463741146FFF740F9204610BD3A
:10522C00BC5D0D00007C0022FFF740B910B51422C4
:10523C000446002100F0A2FC204610BD10B50F4C16
:10524C0088B003A8FFF7F2FF2178BFF35B8F11F052
:10525C0001010FD120460191FEF71BFF019948B1C6
:10526C0003AA0748FFF7CAFF2046FEF717FF0548B9
:10527C0000F070FC024808B010BD00BFE4E503204C
:10528C00E8E503208F510D0070474174704770475B
:10529C0008B5007CFFF792F820EAE07008BD08B56D
:1052AC00007CFFF763F820EAE07008BD08B5007CCD
:1052BC00FFF76CF840EAE07008BD08B5007CFFF71A
:1052CC005DF840EAE07008BD007CFFF767B837B5C1
:1052DC00457C04462DB1207C03B0BDE83040FFF77F
:1052EC003DB8007C0191FFF769F800280199F2DCC8
:1052FC00284603B030BD10B51421044600F066FA00
:10530C00204610BD10B54FF0000C0446084611465F
:10531C004FF47A72C4E901C2044A2260012220745B
:10532C0062741A46FFF712F8204610BDEC5D0D00B2
:10533C0013B50D4C2178BFF35B8F11F0010110D127
:10534C0020460191FEF7A5FE019950B1074B084A82
:10535C000848FFF7D7FF2046FEF7A0FE064800F0EE
:10536C00F9FB044802B010BDFCE5032084E60320E1
:10537C0000E6032008E703209B520D0010B583685C
:10538C0004460BB900F026FAC3689847A3681BB112
:10539C00032221462046984720461021BDE81040A4
:1053AC0000F014BA7047F8B5064615460C468F182F
:1053BC00BC4206D0336814F8011B9B6830469847F2
:1053CC00F6E72846F8BD007C0022FFF717B8007CF2
:1053DC000021FFF71BB8007C0021FFF71FB8007CF1
:1053EC000021FFF723B8007C0021FFF727B810B588
:1053FC001421044600F0EAF9204610BD10B54FF414
:10540C007A73044608460021C4E90113034B236058
:10541C0020741146FFF722F8204610BD1C5E0D00CB
:10542C000023007C1A461946FEF7D0BF7FB5002238
:10543C001423CDE90122ADF804300B788DF8083037
:10544C004B680393CB680493007C0B7A059301A9FA
:10545C00FFF70CF807B05DF804FB1FB5003B8DF8A7
:10546C0000104FF06401039118BF012369460192AB
:10547C008DF80830FFF7DAFF05B05DF804FB012367
:10548C00FFF7EBBF007C0022FEF7A8BF007C0022D8
:10549C00FEF7ACBF0121FFF7F9BF007C0021FEF73E
:1054AC00D5BF002240681146FFF784B8002240683F
:1054BC001146FFF79FB8002240681146FFF7AAB8C3
:1054CC0040680022FFF79EB84068002281F001017D
:1054DC00FFF788B8002340681A461946FFF77AB8D8
:1054EC00002340681A461946FFF76CB80022406842
:1054FC001146FFF74FB8406800220221FFF752B85F
:10550C00002340681A46FFF73DB80000024B042206
:10551C005A60024A1A6070471CE70320445E0D0073
:10552C00002340681A46FFF72DB84068002202217C
:10553C00FFF738B8002240681146FFF72BB800225D
:10554C0040681146FFF736B8002340681A461946E2
:10555C00FFF738B8002340681A461946FFF73AB8E7
:10556C0040680021FFF75EB840680021FFF762B881
:10557C004068002281F00101FFF734B84068002236
:10558C00FFF740B8002240681146FFF743B80022ED
:10559C0040681146FFF72EB82DE9F043002495B072
:1055AC0016460D460746FFF7B3FD214618220EA8F6
:1055BC00009400F0E3FA4023CDE90C3421466B460D
:1055CC000CAA3046FEF782FE0446002846D102465D
:1055DC0001216868FEF7EEFF0221804622466868CA
:1055EC00FEF7E8FF009E81462146002E36D00029AA
:1055FC0034D17368022B03D00A2B0BD0F669F4E775
:10560C00B8F1000F04D0716938460431FFF7ADFDD5
:10561C004146F3E7B9F1000F01D14946EEE7746951
:10562C00102201A800F0AAFA06238DF8143001AD5F
:10563C0004F108031834186859682A4603C2083361
:10564C00A3421546F7D101A906A807ADFFF76EFDD9
:10565C000FCD3C1D0FC42B682370DEE70098FEF7BE
:10566C002DFE384615B0BDE8F0830000024B034A0E
:10567C001A6000225A60704724E70320805E0D00F8
:10568C00232813B502D9002002B010BDA0F10B03E2
:10569C00022B1AD8174C2178BFF35B8F11F0010144
:1056AC000BD120460191FEF7F4FC019928B1124868
:1056BC00FFF756F82046FEF7F1FC0F4B1878FEF773
:1056CC00E5FE0028DFD10120DEE7012809D800F033
:1056DC0059F80021007CFEF7B9FE80F00100C0B241
:1056EC00D2E709380128EED8FFF722FE007CFEF73E
:1056FC005DFEF2E72CE7032030E70320232838B5C2
:10570C0004460D460AD8FF2908D0FFF7B9FF28B187
:10571C0029462046BDE83840FEF7E0BD38BD38B517
:10572C0004460D46FEF7E2FDFF2810D0062804D8EB
:10573C004D2323FA00F0C30709D42046FFF7A0FF3E
:10574C0028B129462046BDE83840FEF7D7BD38BD04
:10575C007047000038B500232025438014230446ED
:10576C000380856005610649284600F031F804493C
:10577C006060284600F02CF8E060204638BD00BF81
:10578C00B45E0D0030B50E4D2978BFF35B8F11F070
:10579C00010487B011D12846FEF77BFC68B101A843
:1057AC00FFF7D8FF01AA21460648FFF727FE284637
:1057BC00FEF774FC044800F0CDF9024807B030BD88
:1057CC003CE7032040E703205D570D00FEF75FBC6C
:1057DC00FEF75BBC08B5FEF76DFF000081F00041E1
:1057EC0002E000BF83F0004330B54FEA41044FEABA
:1057FC00430594EA050F08BF90EA020F1FBF54EA55
:10580C00000C55EA020C7FEA645C7FEA655C00F0F0
:10581C00E2804FEA5454D4EB5555B8BF6D420CDDC1
:10582C002C4480EA020281EA030382EA000083EA44
:10583C00010180EA020281EA0303362D88BF30BDE4
:10584C0011F0004F4FEA01314FF4801C4CEA11313A
:10585C0002D0404261EB410113F0004F4FEA033399
:10586C004CEA133302D0524263EB430394EA050F24
:10587C0000F0A780A4F10104D5F1200E0DDB02FA93
:10588C000EFC22FA05F2801841F1000103FA0EF227
:10589C00801843FA05F359410EE0A5F120050EF1ED
:1058AC00200E012A03FA0EFC28BF4CF0020C43FA1E
:1058BC0005F3C01851EBE37101F0004507D54FF02B
:1058CC00000EDCF1000C7EEB00006EEB0101B1F57B
:1058DC00801F1BD3B1F5001F0CD349085FEA3000C1
:1058EC004FEA3C0C04F101044FEA445212F5800FCC
:1058FC0080F09A80BCF1004F08BF5FEA500C50F169
:10590C00000041EB045141EA050130BD5FEA4C0C4B
:10591C00404141EB0101013C28BFB1F5801FE9D2A8
:10592C0091F0000F04BF01460020B1FA81F308BFCB
:10593C002033A3F10B03B3F120020CDA0C3208DD97
:10594C0002F1140CC2F10C0201FA0CF021FA02F172
:10595C000CE002F11402D8BFC2F1200C01FA02F1E2
:10596C0020FA0CFCDCBF41EA0C019040E41AA2BF07
:10597C0001EB0451294330BD6FEA04041F3C1CDACF
:10598C000C340EDC04F11404C4F1200220FA04F0EF
:10599C0001FA02F340EA030021FA04F345EA030199
:1059AC0030BDC4F10C04C4F1200220FA02F001FA5B
:1059BC0004F340EA0300294630BD21FA04F02946DD
:1059CC0030BD94F0000F83F4801306BF81F4801176
:1059DC000134013D4EE77FEA645C18BF7FEA655CE9
:1059EC0029D094EA050F08BF90EA020F05D054EABB
:1059FC00000C04BF1946104630BD91EA030F1EBFC0
:105A0C000021002030BD5FEA545C05D140004941C3
:105A1C0028BF41F0004130BD14F580043CBF01F5B6
:105A2C00801130BD01F0004545F0FE4141F470019C
:105A3C004FF0000030BD7FEA645C1ABF1946104677
:105A4C007FEA655C1CBF0B46024650EA013406BF78
:105A5C0052EA033591EA030F41F4002130BD00BF37
:105A6C0090F0000F04BF0021704730B54FF48064F4
:105A7C0004F132044FF000054FF0000150E700BF75
:105A8C0090F0000F04BF0021704730B54FF48064D4
:105A9C0004F1320410F0004548BF40424FF00001C1
:105AAC003EE700BF42004FEAE2014FEA31014FEA04
:105ABC0002701FBF12F07F4393F07F4F81F0605153
:105ACC00704732F07F4208BF704793F07F4F04BF9E
:105ADC0041F40021704730B54FF4607401F000457B
:105AEC0021F000411CE700BF50EA010208BF7047DB
:105AFC0030B54FF000050AE050EA010208BF7047CC
:105B0C0030B511F0004502D5404261EB41014FF434
:105B1C00806404F132045FEA915C3FF4D8AE4FF03C
:105B2C0003025FEADC0C18BF03325FEADC0C18BF1F
:105B3C00033202EBDC02C2F1200300FA03FC20FA70
:105B4C0002F001FA03FE40EA0E0021FA02F11444BD
:105B5C00BDE600BF002301461A46184600F060B8A7
:105B6C000A44914200F1FF3300D1704710B511F88F
:105B7C00014B03F8014F9142F9D110BD0244034689
:105B8C00934200D1704703F8011BF9E738B50D4B70
:105B9C001D68AB6B04467BB91820FEF76BFD0A4AF7
:105BAC000A4BA863C0E90023094B83600B23838154
:105BBC0001220023C0E90423AB6B00221C615A6153
:105BCC0038BD00BF34E503200E33CDAB34126DE687
:105BDC00ECDE0500024B0146186800F003B800BF6C
:105BEC0034E5032037B5044608460D4600F00FF89F
:105BFC00421C114620460192FEF764FD044618B182
:105C0C00019A2946FFF7ACFF204603B030BD03468E
:105C1C0013F8012B002AFBD1181A01387047000029
:105C2C002DE9F843DFF8B8800646D8F800001F4687
:105C3C000D46914600F056F8254B1C6834B9254C9E
:105C4C001C60254B13B11B68C4F8883063681F2B8C
:105C5C0007DDD8F8000000F047F84FF0FF30BDE842
:105C6C00F8834EB3D4F8880088B91C4B23B9D8F804
:105C7C00000000F038F8F0E74FF48470FEF7FAFCFF
:105C8C000028F4D00023C0E94033C4F888006368CE
:105C9C0040F8239001229A4000EB8301D0F80031A8
:105CAC001343022EC0F80031C1F8807002BFD0F847
:105CBC0004311A43C0F804216368D8F800005A1C58
:105CCC000233626044F8235000F00EF80020C6E75F
:105CDC00E0E7032054E703200000000081460D009C
:105CEC0098E5032070477047704700001D400D0079
:105CFC0059400D0081400D0085400D000000000052
:105D0C006C696768744C6576656C004C696768747F
:105D1C00204C6576656C3A2025660000000000007A
:105D2C00000000004F470D0045470D003B470D009C
:105D3C0031470D0025470D0019470D006D550D001D
:105D4C0075550D000D470D0005470D00FB460D0068
:105D5C00F1460D00A5550D006170700025592D25DB
:105D6C006D2D25645425483A254D3A2553257A0046
:105D7C0061736374696D6500000000000000000031
:105D8C00714B0D00774B0D00B54B0D00854B0D0085
:105D9C00734B0D000000000000000000B9500D0016
:105DAC00A9500D00AB500D000000000000000000D9
:105DBC0091510D00F9510D00CF510D000D490D0001
:105DCC00C1510D0093510D00A3510D00F3510D0065
:105DDC00B3510D008B510D000000000000000000BD
:105DEC0095520D0003530D00DB520D000D490D00B3
:105DFC00AB520D00C7520D00B9520D00D5520D001B
:105E0C0097520D009D520D00000000000000000094
:105E1C00B1530D00FB530D00D3530D00B3530D00C4
:105E2C00DB530D00E3530D00EB530D00F3530D004A
:105E3C0000000000000000000D550D0003550D0082
:105E4C00F9540D00AF540D00ED540D00E1540D004C
:105E5C006D550D0075550D00D5540D00CD540D002C
:105E6C00C3540D00B9540D00A5550D0000000000E1
:105E7C00000000002D550D0037550D0041550D004B
:105E8C004B550D0055550D0061550D006D550D0010
:105E9C0075550D007D550D0089550D0091550D0062
:105EAC009B550D00A5550D00000000009D420D00F6
:105EBC0059470D0081470D00FD480D00CD490D00DF
:105ECC00DD490D002D4A0D0019550D0079560D00B8
:045EDC0000000000C2
:045EE00000000000BE
:105EE400070000007C5D0D0038E503200000000081
:105EF400000000000000000000000000000000009E
:105F0400000000000000000000000000000000008D
:105F1400000000000000000000000000000000007D
:105F2400000000000000000000000000000000006D
:105F3400000000000000000000000000000000005D
:105F4400000000000000000000000000E5E703205E
:105F5400FFFFFFFF00000102030405060708090A0A
:105F64000B0C0D0E0F101112131415161718191A05
:085F74001B1C1D1E1F2028004C
:045F7C00785634120D
:04000003D000401CCD
:00000001FF
